:020000040000FA
:100000000000212901340034A200030E8301A10065
:100010000A088A01A0000408CF0083128B1C18284C
:100020005B08031D16280330DB00D71483128B10E6
:1000300083120C1C212857140C10BF308F00FF3086
:100040008E0083128C1F282883161C1183128C1398
:100050004F08840020088A008301210E8300A20E2D
:10006000220E0900D222CA018312051ACA0A4A08BE
:10007000003003190130CB00CA004A0C031C57138F
:1000800003185717CA01851ACA0A4A08CB004B0C35
:10009000031CD7130318D717C92384235808BD217D
:1000A000571C7A285710D71C6C285008CA005108D2
:1000B000CB005208CC005308CD0001304A07D000D5
:1000C000D101D10D4B08D107D201D20D4C08D20776
:1000D000D301D30D4D08D3075B08031973285B08C0
:1000E000CA004A03DB005A0803197A285A08CA00D2
:1000F0004A03DA00D71CB0285B08031DB02883121E
:100100000519942800305302031D90280030520234
:10011000031D902800305102031D90289930500291
:10012000031CB0285715B028D71000305302031D08
:10013000A32800305202031DA32800305102031DE2
:10014000A32899305002031CA928D9015711D715AB
:10015000AC2857161030DA00D001D101D201D301FA
:10016000571DE8285A08031DE828D71EBA28580842
:10017000BD21BC280330BD2109305902031CD428FD
:100180005808CA00CB01CA0A0319CB0A0330AD00D4
:100190000030AE004A08AF004B082422CB002F08E5
:1001A000CA00D800D901D8285908CA004A0AD9007B
:1001B000CA01D71ACA0A4A08003003190130CB0015
:1001C000CA004A0C031CD7120318D7160830DA00ED
:1001D000D71D14295A08031D1429D71EF2285808C0
:1001E000BD21F4280330BD2106305902031C00292B
:1001F000D901DA01D7115808BD218423B923042974
:100200005908CA004A0AD900CA01D71ACA0A4A08B4
:10021000003003190130CB00CA004A0C031CD7126E
:100220000318D7161030DA00571E50285A08031941
:100230001C298312071050288312071457125028C4
:1002400008003D30AE000330AF00803000000000F9
:100250001C230000000083120000B1002F08B00032
:100260003F30B2000330B300831200003008B40006
:100270003108B500FF30B007031CB1033508340462
:100280000319B92904303207B400B501B50D33089C
:10029000B5073408AE003508AF008030000000001C
:1002A0001C230000000083120000B7002F08B600D6
:1002B0003208AE003308AF008030000000001C237D
:1002C0000000000083120000B900B5002F08B40040
:1002D000B80002303207B400B501B50D3308B507D8
:1002E0003408AE003508AF008030000000001C2349
:1002F0000000000083120000B500BB002F08BA0008
:10030000B400831200003608BA003708BB00FF3083
:10031000B607031CB7033B083A040319B22938088F
:10032000AE003908AF008030000000000923000053
:10033000000083120000BA00340883120313840003
:10034000831383120000351883173A0883120313AE
:10035000800083120000B80A0319B90AB40A03190D
:10036000B50A8129063083120000B2070318B30AC8
:1003700034290000000032280800CE0003304E026D
:1003800003180E2A01308A00C9304E0703188A0A62
:100390008200CC29E229F829D71FD1298312071618
:1003A000D32983120712D71FD82983128715DA2978
:1003B00083128711D71FDF2983128712232A831202
:1003C0008716232AD71FE72983128716E929831264
:1003D0008712D71FEE2983128715F0298312871100
:1003E000D71FF52983120712232A83120716232AFF
:1003F000D71FFD2983120716FF2983120712D71F63
:10040000042A83128716062A83128712D71F0B2A03
:1004100083128711232A83128715232AD71F132AB1
:1004200083128716152A83128712D71F1A2A83125E
:1004300007161C2A83120712D71F212A8312871539
:10044000232A83128711080083120000C4002F089A
:10045000C3002E08C6002D08C5000314C41F0310D6
:10046000C701C70D470803193D2A4309C8004409BD
:10047000C900C80A0319C90A432A831200004308A5
:10048000C8004408C900831200004808C300490896
:10049000C4000314C61F0310031C562A4509C800D4
:1004A0004609C900C80A0319C90A5C2A8312000058
:1004B0004508C8004608C900831200004808C50066
:1004C000AD004908C600AE004308AF004408000074
:1004D000000085220000000083120000C4002F08E5
:1004E000C300470803197F2A4309C7004409C50010
:1004F000C70A0319C50A4708AF004508842A8312B2
:1005000000004308AF004408080083120000BD004B
:100510002F08BC002E08BF002D08BE00C001C1017D
:10052000831200003F088039031D0130C2004208D9
:10053000031DB12A0310BE0DBF0D3F083D02031D70
:10054000A32A3E083C020318AB2A031083120000C2
:10055000BF0CBE0CB12A83120000C10A4108C000C2
:10056000902A831200003F083D02031DB92A3E086D
:100570003C02031CC32A831200003E08BC023F0851
:10058000031C3F0FBD02031083120000BF0CBE0C02
:100590004008C100C0034108031DB12A3C08AF0058
:1005A0003D0808008312191599141914831687122F
:1005B0000712871185100510071187100710831285
:1005C00007148316851695160516151605151515A7
:1005D00081135710D7105711D7115712D716571329
:1005E00083129010101590111012901210130C100D
:1005F000BF308F00FF308E0010148316011383125A
:100600000B168B110B1783160C148C1783128B1778
:100610000800003A0319102B803A0319172B0034F5
:100620002E08840083132F188317000808002F0852
:100630008A002E0882000800003A0319242B803A11
:1006400003192E2BAF0100342E08840083132F18BA
:1006500083170008AF00840A0008080000000000AB
:100660001723AD00AE0FAF03AF0A00000000172341
:10067000AC002D08AF002C0808000634003402340A
:100680000034583400340134003403340034593415
:10069000003401340034D73403345A340034013484
:1006A0000034D83403345B34003401340034D334A0
:1006B00003345034003404340034D93403345C340B
:1006C000003401340034571F6A2B83120710571669
:1006D0001030DA00033058020318832B03308A00ED
:1006E0007530580703188A0A8200782B7C2B802BE0
:1006F000831287140711832B831287100715832B0E
:1007000083128710071108000330580203189D2B2D
:1007100003308A008F30580703188A0A8200922B10
:10072000962B9A2B8312851405109D2B831285100E
:1007300005149D2B8312851405146323080083126E
:100740000000D600D4002F08D500D400AD00003042
:10075000AE005608AF000030000000008522000007
:10076000000083120000D5002F08D400AF00550808
:100770000800580883169A009B011C1583128B13DE
:10078000553083169D00AA309D009C1483128B1750
:10079000080083169B011C140330AF001A089F2326
:1007A0002F08D8000800003400340034003400342E
:0407B00000340034DD
:02400E00D43F9D
:00000001FF
